{
  "_format": "hh-sol-artifact-1",
  "contractName": "ArtContest",
  "sourceName": "contracts/ArtContest.sol",
  "abi": [
    {
      "inputs": [],
      "name": "ZamaProtocolUnsupported",
      "type": "error"
    },
    {
      "anonymous": false,
      "inputs": [
        {
          "indexed": true,
          "internalType": "uint256",
          "name": "entryId",
          "type": "uint256"
        },
        {
          "indexed": true,
          "internalType": "address",
          "name": "judge",
          "type": "address"
        }
      ],
      "name": "EntryScored",
      "type": "event"
    },
    {
      "anonymous": false,
      "inputs": [
        {
          "indexed": true,
          "internalType": "uint256",
          "name": "entryId",
          "type": "uint256"
        },
        {
          "indexed": true,
          "internalType": "address",
          "name": "contestant",
          "type": "address"
        },
        {
          "indexed": false,
          "internalType": "string",
          "name": "title",
          "type": "string"
        }
      ],
      "name": "EntrySubmitted",
      "type": "event"
    },
    {
      "anonymous": false,
      "inputs": [
        {
          "indexed": true,
          "internalType": "uint256",
          "name": "entryId",
          "type": "uint256"
        },
        {
          "indexed": true,
          "internalType": "address",
          "name": "judge",
          "type": "address"
        },
        {
          "indexed": false,
          "internalType": "string",
          "name": "category",
          "type": "string"
        }
      ],
      "name": "EntryVoted",
      "type": "event"
    },
    {
      "inputs": [],
      "name": "confidentialProtocolId",
      "outputs": [
        {
          "internalType": "uint256",
          "name": "",
          "type": "uint256"
        }
      ],
      "stateMutability": "view",
      "type": "function"
    },
    {
      "inputs": [],
      "name": "getAllEntries",
      "outputs": [
        {
          "internalType": "uint256[]",
          "name": "ids",
          "type": "uint256[]"
        }
      ],
      "stateMutability": "view",
      "type": "function"
    },
    {
      "inputs": [
        {
          "internalType": "uint256",
          "name": "entryId",
          "type": "uint256"
        },
        {
          "internalType": "string",
          "name": "category",
          "type": "string"
        }
      ],
      "name": "getCategoryVotes",
      "outputs": [
        {
          "internalType": "euint32",
          "name": "votesHandle",
          "type": "bytes32"
        }
      ],
      "stateMutability": "view",
      "type": "function"
    },
    {
      "inputs": [
        {
          "internalType": "uint256",
          "name": "entryId",
          "type": "uint256"
        }
      ],
      "name": "getEntry",
      "outputs": [
        {
          "internalType": "uint256",
          "name": "id",
          "type": "uint256"
        },
        {
          "internalType": "address",
          "name": "contestant",
          "type": "address"
        },
        {
          "internalType": "string",
          "name": "title",
          "type": "string"
        },
        {
          "internalType": "string",
          "name": "descriptionHash",
          "type": "string"
        },
        {
          "internalType": "string",
          "name": "fileHash",
          "type": "string"
        },
        {
          "internalType": "string[]",
          "name": "tags",
          "type": "string[]"
        },
        {
          "internalType": "string[]",
          "name": "categories",
          "type": "string[]"
        },
        {
          "internalType": "uint64",
          "name": "timestamp",
          "type": "uint64"
        },
        {
          "internalType": "euint32",
          "name": "scoresHandle",
          "type": "bytes32"
        }
      ],
      "stateMutability": "view",
      "type": "function"
    },
    {
      "inputs": [],
      "name": "nextEntryId",
      "outputs": [
        {
          "internalType": "uint256",
          "name": "",
          "type": "uint256"
        }
      ],
      "stateMutability": "view",
      "type": "function"
    },
    {
      "inputs": [
        {
          "internalType": "uint256",
          "name": "entryId",
          "type": "uint256"
        }
      ],
      "name": "scoreEntry",
      "outputs": [],
      "stateMutability": "nonpayable",
      "type": "function"
    },
    {
      "inputs": [
        {
          "internalType": "string",
          "name": "title",
          "type": "string"
        },
        {
          "internalType": "string",
          "name": "descriptionHash",
          "type": "string"
        },
        {
          "internalType": "string",
          "name": "fileHash",
          "type": "string"
        },
        {
          "internalType": "string[]",
          "name": "tags",
          "type": "string[]"
        },
        {
          "internalType": "string[]",
          "name": "categories",
          "type": "string[]"
        }
      ],
      "name": "submitEntry",
      "outputs": [
        {
          "internalType": "uint256",
          "name": "entryId",
          "type": "uint256"
        }
      ],
      "stateMutability": "nonpayable",
      "type": "function"
    },
    {
      "inputs": [
        {
          "internalType": "uint256",
          "name": "entryId",
          "type": "uint256"
        },
        {
          "internalType": "string",
          "name": "category",
          "type": "string"
        }
      ],
      "name": "voteEntry",
      "outputs": [],
      "stateMutability": "nonpayable",
      "type": "function"
    }
  ],
  "bytecode": "0x608060405260015f55348015610013575f5ffd5b506100c861001f6100cd565b80517f9e7b61f58c47dc699ac88507c4f5bb9f121c03808c5676a8078fe583e464970080546001600160a01b03199081166001600160a01b039384161790915560208301517f9e7b61f58c47dc699ac88507c4f5bb9f121c03808c5676a8078fe583e46497018054831691841691909117905560408301517f9e7b61f58c47dc699ac88507c4f5bb9f121c03808c5676a8078fe583e46497028054909216921691909117905550565b61027c565b604080516060810182525f808252602082018190529181019190915246600103610166575060408051606080820183525f8083526020808401829052928401528251908101835273ca2e8f1f656cd25c01f05d0b243ab1ecd4a8ffb6815273d82385dada1ae3e969447f20a3164f6213100e75918101919091527377627828a55156b04ac0dc0eb30467f1a552bb039181019190915290565b4662aa36a7036101e5575060408051606080820183525f8083526020808401829052928401528251908101835273f0ffdc93b7e186bc2f8cb3daa75d86d1930a433d81527392c920834ec8941d2c77d188936e1f7a6f49c1279181019190915273be0e383937d564d7ff0bc3b46c51f0bf8d5c311a9181019190915290565b46617a6903610263575060408051606080820183525f808352602080840182905292840152825190810183527350157cffd6bbfa2dece204a89ec419c23ef5755d815273e3a9105a3a932253a70f126eb1e3b589c643dd249181019190915273be0e383937d564d7ff0bc3b46c51f0bf8d5c311a9181019190915290565b6040516373cac13b60e01b815260040160405180910390fd5b6113fc806102895f395ff3fe608060405234801561000f575f5ffd5b5060043610610085575f3560e01c80638927b030116100585780638927b030146100ec5780638eecb05a146100f4578063bae78d7b14610107578063e6b2cf6c1461012f575f5ffd5b8063152069e6146100895780631dba48071461009e5780634a0364e8146100c457806353310147146100d9575b5f5ffd5b61009c610097366004610d7b565b610137565b005b6100b16100ac366004610dd6565b6101f6565b6040519081526020015b60405180910390f35b6100cc610231565b6040516100bb9190610e1d565b6100b16100e7366004610e9f565b610287565b6100b1610470565b61009c610102366004610dd6565b61047e565b61011a610115366004610d7b565b6106a5565b6040516100bb99989796959493929190611022565b6100b15f5481565b5f818152600160208190526040909120908101546001600160a01b03166101795760405162461bcd60e51b8152600401610170906110bd565b60405180910390fd5b61018881600701546001610a8c565b6007820181905561019890610ab7565b50600781015460018201546101b691906001600160a01b0316610ad7565b506101c5816007015433610afa565b50604051339083907fef5623e93c2af74e92f1c49ad427fa4eb5d4de7e4352da4ed4ea5a0ec7dd5d46905f90a35050565b5f5f83836040516102089291906110e6565b60408051918290039091205f968752600360209081528288209188525290942054949350505050565b6060600280548060200260200160405190810160405280929190818152602001828054801561027d57602002820191905f5260205f20905b815481526020019060010190808311610269575b5050505050905090565b5f80548180610295836110f5565b9190505590505f6102a55f610b16565b5f83815260016020819052604090912084815590810180546001600160a01b03191633179055909150600281016102dd8d8f836111b1565b50600381016102ed8b8d836111b1565b50600481016102fd898b836111b1565b5060088101805467ffffffffffffffff1916426001600160401b0316179055600781018290555f5b8681101561037d57816005018888838181106103435761034361126a565b9050602002810190610355919061127e565b82546001810184555f93845260209093209092019161037491836111b1565b50600101610325565b505f5b848110156103d8578160060186868381811061039e5761039e61126a565b90506020028101906103b0919061127e565b82546001810184555f9384526020909320909201916103cf91836111b1565b50600101610380565b506103e68160070154610ab7565b506103f5816007015433610ad7565b50600283908060018154018082558091505060019003905f5260205f20015f9091909190915055336001600160a01b0316837f1d757c880bd3e669e02148cc1f4b862ab3a4bd8d1b84ffdb2f0d41340f2c9cba8f8f6040516104589291906112c0565b60405180910390a350509a9950505050505050505050565b5f610479610b2e565b905090565b5f838152600160208190526040909120908101546001600160a01b03166104b75760405162461bcd60e51b8152600401610170906110bd565b5f805b60068301548110156105265784846040516104d69291906110e6565b60405180910390208360060182815481106104f3576104f361126a565b905f5260205f200160405161050891906112ee565b60405180910390200361051e5760019150610526565b6001016104ba565b50806105835760405162461bcd60e51b815260206004820152602660248201527f456e74727920646f6573206e6f742062656c6f6e6720746f20746869732063616044820152657465676f727960d01b6064820152608401610170565b5f84846040516105949291906110e6565b60408051918290039091205f888152600360209081528382208383528152838220548a8352600482528483208484529091529290205490925060ff16610603576105dd5f610b16565b5f8881526004602090815260408083208684529091529020805460ff1916600117905590505b61060e816001610a8c565b5f8881526003602090815260408083208684529091529020819055905061063481610ab7565b50600184015461064e9082906001600160a01b0316610ad7565b506106598133610afa565b50336001600160a01b0316877dcbe3a7fbce68ee88ed911e1670e2c10e4a312dd8e1fb907b5c682d1e963388886040516106949291906112c0565b60405180910390a350505050505050565b5f81815260016020819052604082209081015482916060918291829182918291879182916001600160a01b03166106ee5760405162461bcd60e51b8152600401610170906110bd565b80546001820154600883015460078401546002850180546001600160a01b0390941693909260038701926004880192600589019260068a01926001600160401b0390911691879061073e9061112d565b80601f016020809104026020016040519081016040528092919081815260200182805461076a9061112d565b80156107b55780601f1061078c576101008083540402835291602001916107b5565b820191905f5260205f20905b81548152906001019060200180831161079857829003601f168201915b505050505096508580546107c89061112d565b80601f01602080910402602001604051908101604052809291908181526020018280546107f49061112d565b801561083f5780601f106108165761010080835404028352916020019161083f565b820191905f5260205f20905b81548152906001019060200180831161082257829003601f168201915b505050505095508480546108529061112d565b80601f016020809104026020016040519081016040528092919081815260200182805461087e9061112d565b80156108c95780601f106108a0576101008083540402835291602001916108c9565b820191905f5260205f20905b8154815290600101906020018083116108ac57829003601f168201915b5050505050945083805480602002602001604051908101604052809291908181526020015f905b82821015610998578382905f5260205f2001805461090d9061112d565b80601f01602080910402602001604051908101604052809291908181526020018280546109399061112d565b80156109845780601f1061095b57610100808354040283529160200191610984565b820191905f5260205f20905b81548152906001019060200180831161096757829003601f168201915b5050505050815260200190600101906108f0565b50505050935082805480602002602001604051908101604052809291908181526020015f905b82821015610a66578382905f5260205f200180546109db9061112d565b80601f0160208091040260200160405190810160405280929190818152602001828054610a079061112d565b8015610a525780601f10610a2957610100808354040283529160200191610a52565b820191905f5260205f20905b815481529060010190602001808311610a3557829003601f168201915b5050505050815260200190600101906109be565b505050509250995099509950995099509950995099509950509193959799909294969850565b5f82610a9e57610a9b5f610b16565b92505b610ab08363ffffffff84166001610b62565b9392505050565b5f81610ac957610ac65f610b16565b91505b610ad38230610c17565b5090565b5f82610ae957610ae65f610b16565b92505b610af38383610c17565b5090919050565b5f82610b0c57610b095f610b16565b92505b610af38383610c8b565b5f610b288263ffffffff166004610cd1565b92915050565b5f46600103610b3d5750600190565b4662aa36a703610b4e575061271190565b46617a6903610b5d57505f1990565b505f90565b5f5f8215610b755750600160f81b610b78565b505f5b5f5f5160206113a75f395f51905f52600181015460405163022f65e760e31b815260048101899052602481018890526001600160f81b0319851660448201529192506001600160a01b03169063117b2f38906064016020604051808303815f875af1158015610be9573d5f5f3e3d5ffd5b505050506040513d601f19601f82011682018060405250810190610c0d919061135f565b9695505050505050565b5f5160206113a75f395f51905f528054604051635ca4b5b160e11b8152600481018590526001600160a01b0384811660248301529091169063b9496b62906044015b5f604051808303815f87803b158015610c70575f5ffd5b505af1158015610c82573d5f5f3e3d5ffd5b50505050505050565b5f5160206113a75f395f51905f528054604051630f8e573b60e21b8152600481018590526001600160a01b03848116602483015290911690633e395cec90604401610c59565b7f9e7b61f58c47dc699ac88507c4f5bb9f121c03808c5676a8078fe583e464970154604051639cd07acb60e01b81525f915f5160206113a75f395f51905f52916001600160a01b0390911690639cd07acb90610d339087908790600401611376565b6020604051808303815f875af1158015610d4f573d5f5f3e3d5ffd5b505050506040513d601f19601f82011682018060405250810190610d73919061135f565b949350505050565b5f60208284031215610d8b575f5ffd5b5035919050565b5f5f83601f840112610da2575f5ffd5b5081356001600160401b03811115610db8575f5ffd5b602083019150836020828501011115610dcf575f5ffd5b9250929050565b5f5f5f60408486031215610de8575f5ffd5b8335925060208401356001600160401b03811115610e04575f5ffd5b610e1086828701610d92565b9497909650939450505050565b602080825282518282018190525f918401906040840190835b81811015610e54578351835260209384019390920191600101610e36565b509095945050505050565b5f5f83601f840112610e6f575f5ffd5b5081356001600160401b03811115610e85575f5ffd5b6020830191508360208260051b8501011115610dcf575f5ffd5b5f5f5f5f5f5f5f5f5f5f60a08b8d031215610eb8575f5ffd5b8a356001600160401b03811115610ecd575f5ffd5b610ed98d828e01610d92565b909b5099505060208b01356001600160401b03811115610ef7575f5ffd5b610f038d828e01610d92565b90995097505060408b01356001600160401b03811115610f21575f5ffd5b610f2d8d828e01610d92565b90975095505060608b01356001600160401b03811115610f4b575f5ffd5b610f578d828e01610e5f565b90955093505060808b01356001600160401b03811115610f75575f5ffd5b610f818d828e01610e5f565b915080935050809150509295989b9194979a5092959850565b5f81518084528060208401602086015e5f602082860101526020601f19601f83011685010191505092915050565b5f82825180855260208501945060208160051b830101602085015f5b8381101561101657601f19858403018852611000838351610f9a565b6020988901989093509190910190600101610fe4565b50909695505050505050565b8981526001600160a01b0389166020820152610120604082018190525f9061104c9083018a610f9a565b828103606084015261105e818a610f9a565b905082810360808401526110728189610f9a565b905082810360a08401526110868188610fc8565b905082810360c084015261109a8187610fc8565b6001600160401b039590951660e084015250506101000152979650505050505050565b6020808252600f908201526e115b9d1c9e481b9bdd08199bdd5b99608a1b604082015260600190565b818382375f9101908152919050565b5f6001820161111257634e487b7160e01b5f52601160045260245ffd5b5060010190565b634e487b7160e01b5f52604160045260245ffd5b600181811c9082168061114157607f821691505b60208210810361115f57634e487b7160e01b5f52602260045260245ffd5b50919050565b601f8211156111ac57805f5260205f20601f840160051c8101602085101561118a5750805b601f840160051c820191505b818110156111a9575f8155600101611196565b50505b505050565b6001600160401b038311156111c8576111c8611119565b6111dc836111d6835461112d565b83611165565b5f601f84116001811461120d575f85156111f65750838201355b5f19600387901b1c1916600186901b1783556111a9565b5f83815260208120601f198716915b8281101561123c578685013582556020948501946001909201910161121c565b5086821015611258575f1960f88860031b161c19848701351681555b505060018560011b0183555050505050565b634e487b7160e01b5f52603260045260245ffd5b5f5f8335601e19843603018112611293575f5ffd5b8301803591506001600160401b038211156112ac575f5ffd5b602001915036819003821315610dcf575f5ffd5b60208152816020820152818360408301375f818301604090810191909152601f909201601f19160101919050565b5f5f83546112fb8161112d565b600182168015611312576001811461132757611354565b60ff1983168652811515820286019350611354565b865f5260205f205f5b8381101561134c57815488820152600190910190602001611330565b505081860193505b509195945050505050565b5f6020828403121561136f575f5ffd5b5051919050565b828152604081016054831061139957634e487b7160e01b5f52602160045260245ffd5b826020830152939250505056fe9e7b61f58c47dc699ac88507c4f5bb9f121c03808c5676a8078fe583e4649700a2646970667358221220ed669faddb6e50927a6b7144dc5a1bad60da7d0e54710c79ff1ddf801c95d77964736f6c634300081b0033",
  "linkReferences": {},
  "deployedLinkReferences": {}
}